:100000000C9442000C944B050C944B050C944B053E
:100010000C944B050C944B050C944B050C944B0520
:100020000C944B050C944B050C944B050C944B0510
:100030000C944B050C944B050C944B050C944B0500
:100040000C944B050C944B050C944B050C944B05F0
:100050000C944B050C944B050C94F0020C944B053E
:100060000C944B050C944B050C944B050C944B05D0
:100070000C944B050C944B05380038188038183C0C
:1000800052000AA611241FBECFEFCDBFDFE3DEBFB3
:10009000E8E7F0E040E017C0B591A59135912591D2
:1000A000059107FD0CC095918591EF01F92FE82F7F
:1000B00005900D92A217B307D9F7FE0104C01D9257
:1000C000A217B307E1F7E438F40731F70E946C0098
:0800D0000C946A00F894FFCFC4
:1000D8000E9445050E9434047894109205381092C5
:1000E800063880910538811106C080910638811143
:1000F80002C00E94E704809105388111F2CF8091F7
:100108000638882371F30E94920260911338709127
:10011800143880911538909116380E9485040E94F1
:10012800740360930B38C0901338D0901438E09063
:100138001538F090163860910B3870E080E090E048
:100148000E9437039B01AC01C701B6010E940B0551
:1001580060930D3870930E3880930F389093103851
:1001680060910D3870910E3880910F389091103849
:1001780020E030E048EC52E40E94410560930D38DD
:1001880070930E3880930F389093103860910D3823
:1001980070910E3880910F38909110380E94850424
:1001A8000E9474036093173890910B388DEC989FD8
:1001B800912D1124969596959695909300383091A7
:1001C8000B38389F912D1124969596959695990FF1
:1001D800292F220F220F920F391B30930C38909140
:1001E8001738989F912D11249695969596959093EA
:1001F8000A3820911738289F812D112486958695D5
:100208008695880F982F990F990F890F281B20938F
:10021800093860911338709114388091153890918D
:10022800163820E030E04AE754E40E9441050E9475
:1002380085040E94120560931138709312380E9449
:10024800A3030997FC01EE0FFF1FE85BF54C8081C3
:10025800918180930738909308388DE00E940405B7
:1002680080910038805D0E94040580910C38805D83
:100278000E9404058EE20E94040580910A38805D80
:100288000E94040580910938805D0E9404058DE66E
:0C0298000E94040586E50E94040523CFA7
:1002A40010C00E94200558F00E94190540F029F45E
:1002B4005F3F29F00C942E0551110C9428050C94E1
:1002C40048050E94120468F39923B1F3552391F36E
:1002D400951B550BBB27AA2762177307840738F0B1
:1002E4009F5F5F4F220F331F441FAA1FA9F335D00E
:1002F4000E2E3AF0E0E832D091505040E695001CC2
:10030400CAF72BD0FE2F29D0660F771F881FBB1F7B
:10031400261737074807AB07B0E809F0BB0B802D59
:10032400BF01FF2793585F4F3AF09E3F510578F085
:100334000C942E050C9428055F3FE4F3983ED4F307
:10034400869577956795B795F7959F5FC9F7880F59
:10035400911D9695879597F90895E1E0660F771FAB
:10036400881FBB1F621773078407BA0720F0621B3C
:0E037400730B840BBA0BEE1F88F7E09508950B
:100382000FC00E94190538F00E94200520F0952325
:1003920011F00C942E050C94480511240C94280598
:1003A2000E94120470F3959FC1F3950F50E0551F00
:1003B200629FF001729FBB27F00DB11D639FAA27B8
:1003C200F00DB11DAA1F649F6627B00DA11D661F07
:1003D200829F2227B00DA11D621F739FB00DA11D28
:1003E200621F839FA00D611D221F749F3327A00DE2
:1003F200611D231F849F600D211D822F762F6A2F7E
:1004020011249F5750409AF0F1F088234AF0EE0FE2
:10041200FF1FBB1F661F771F881F91505040A9F70F
:100422009E3F510580F00C942E050C9428055F3FE9
:10043200E4F3983ED4F3869577956795B795F7954B
:10044200E7959F5FC1F7FE2B880F911D96958795C3
:0404520097F9089579
:1004560011C00E94190538F00E94200520F039F4D9
:100466009F3F19F426F40C9448050EF4E095E7FB3B
:100476000C942E05E92F0E94120458F3BA1762074E
:1004860073078407950720F079F4A6F50C942705E1
:100496000EF4E0950B2EBA2FA02D0B01B901900199
:1004A6000C01CA01A0011124FF27591B99F0593FDD
:1004B60050F4503E68F11A16F040A22F232F342F25
:1004C6004427585FF3CF469537952795A795F04073
:1004D6005395C9F77EF41F16BA0B620B730B840B88
:1004E600BAF09150A1F0FF0FBB1F661F771F881F40
:1004F600C2F70EC0BA0F621F731F841F48F4879598
:1005060077956795B795F7959E3F08F0B0CF939589
:0E051600880F08F09927EE0F979587950895A6
:100524001092063860910138709102388091033836
:10053400909104380E94390320E030E040E852E40E
:100544000E94410520E030EE4FEF54E40E943D0547
:100554006093133870931438809315389093163839
:100564006091133870911438809115389091163831
:1005740020E030E040EE50E40E9434051816BCF44C
:100584006091133870911438809115389091163811
:100594002DEC3CEC4CE45EE30E940C0560931338B4
:1005A4007093143880931538909316380895609199
:1005B40013387091143880911538909116382DECB9
:1005C4003CEC4CEC5DE30E940C0560931338709393
:0C05D40014388093153890931638089561
:1005E0001F920F920FB60F9211248F939F93AF9388
:1005F000BF93EF93FF93E0E0F6E081E085831092F4
:10060000053880899189A289B389809301389093B4
:100610000238A0930338B093043880910138909148
:100620000238A0910338B0910438BB2324F48150E0
:100630009C4FAF4FBF4F072E7AE0B595A795979582
:1006400087957A95D1F7702D809301389093023871
:10065000A0930338B0930438FF91EF91BF91AF910D
:0E0660009F918F910F900FBE0F901F901895D5
:10066E00E89409C097FB3EF490958095709561953E
:10067E007F4F8F4F9F4F9923A9F0F92F96E9BB27F4
:10068E009395F695879577956795B795F111F8CF70
:10069E00FAF4BB0F11F460FF1BC06F5F7F4F8F4FDB
:1006AE009F4F16C0882311F096E911C0772321F0D1
:1006BE009EE8872F762F05C0662371F096E8862F69
:1006CE0070E060E02AF09A95660F771F881FDAF7C0
:0A06DE00880F9695879597F9089507
:1006E8000E941A0488F09F5798F0B92F9927B7519C
:1006F800B0F0E1F0660F771F881F991F1AF0BA95BE
:10070800C9F714C0B13091F00E942705B1E00895EF
:100718000C942705672F782F8827B85F39F0B93FE1
:10072800CCF3869577956795B395D9F73EF4909570
:0E0738008095709561957F4F8F4F9F4F08956C
:1007460080E090E01EC0FC01EE0FFF1FE85EF74C54
:100756004081518120911138309112382417350784
:100766007CF0FC013196EE0FFF1FE85EF74C4081EE
:1007760051812091113830911238241735072CF009
:0C0786000196843021E09207F0F2089503
:1007920080E008C0E82FF0E0E05FFB4F90819860B6
:1007A20090838F5F8830B0F380E008C0E82FF0E0DC
:1007B200E05DFB4F9081986090838F5F8830B0F34B
:1007C20080E008C0E82FF0E0E05BFB4F908198608A
:0A07D20090838F5F8830B0F3089524
:1007DC00990F0008550FAA0BE0E8FEEF1616170646
:1007EC00E807F907C0F012161306E407F50798F0AE
:1007FC00621B730B840B950B39F40A2661F0232BC7
:10080C00242B252B21F408950A2609F4A140A69542
:08081C008FEF811D811D08957D
:1008240057FD9058440F551F59F05F3F71F047959D
:10083400880F97FB991F61F09F3F79F08795089582
:10084400121613061406551FF2CF4695F1DF08C0A1
:10085400161617061806991FF1CF869571056105BE
:040864000894089557
:100868000E94FC04E0E0F6E08081816280838DE0F4
:10087800818384EA828381E087839AEF908795E871
:1008880093879AE09187848792E09587948590640E
:0C089800948792EC9287848385830895F6
:1008A400882371F4772321F09850872B762F07C083
:1008B400662311F499270DC09051862B70E060E0F7
:1008C4002AF09A95660F771F881FDAF7880F969596
:0608D400879597F90895D5
:1008DA000E941A04A0F0BEE7B91788F4BB279F3814
:1008EA0060F41616B11D672F782F8827985FF7CF07
:1008FA00869577956795B11D93959639C8F30895AE
:10090A000E946D0490F09F3748F4911116F00C94F0
:10091A00280560E070E080E89FEB089526F41B1636
:0E092A00611D711D811D0C9452040C94CC04AF
:1009380084B1877F84B9E3E3F4E08081877F808393
:1009480085B18B7F85B984B1846084B90E94F20433
:02095800089500
:10095A00092E0394000C11F4882352F0BB0F40F4C3
:10096A00BF2B11F460FF04C06F5F7F4F8F4F9F4F03
:02097A000895DE
:10097C0042E068ED80E790E00E94390540E068EDC8
:0C098C0081E690E00E94390580E00895AB
:100998009F3F31F0915020F4879577956795B795EB
:0C09A800880F911D9695879597F908958A
:1009B4000E94C9030E94BE040E949C040E944F0529
:0A09C4000E9451050E944D050895A0
:1009CE00E0E0F6E084858064848781E080930538DA
:0609DE0080930638089525
:1009E400E0E0F8E086EB92E08087918780E48683FC
:0409F40080E0089502
:1009F800E0E0F4E086E0828384E0818B828B0895D6
:0E0A08009091040895FFFCCF8093020808959A
:0E0A16005058BB27AA270E942B020C94AD0457
:0E0A24000E9474036894B1110C942805089583
:0E0A320000240A9416161706180609060895E1
:0E0A400000240A9412161306140605060895E3
:0E0A4E00E894BB2766277727CB0197F9089518
:0C0A5C0097F99F6780E870E060E0089563
:0A0A68000E94EE0308F48FEF0895DA
:080A7200FC0164BF40830895FC
:080A7A000E9452010C94AD042E
:080A82000E94C1010C94AD04B7
:060A8A000E94DA04089549
:060A90009FEF80EC0895C9
:040A96000C940000BC
:040A9A0080E008955B
:040A9E0080E0089557
:040AA20080E0089553
:100AA600F6FC1DFD43FD69FD90FDB6FDDDFD04FE72
:100AB6002AFE51FE78FE9FFEC6FEEDFE14FF3BFFAA
:100AC60063FF8AFFB1FFD9FF000027004F007700C0
:100AD6009E00C600EE0015013D0165018D01B501C0
:100AE600DD0105022D0255027D02A502CE02F602A7
:100AF6001E0346036F039703C003E803110439047A
:100B060062048B04B304DC0405052E0556057F0537
:100B1600A805D105FA0523064C0675069E06C706E6
:100B2600F006190742076B079507BE07E707100887
:100B36003A0863088C08B608DF08080932095B0919
:100B46008409AE09D709010A2A0A540A7D0AA70AA6
:100B5600D00AFA0A230B4D0B760BA00BC90BF30B2D
:100B66001C0C460C700C990CC30CEC0C160D3F0DAE
:100B7600690D920DBC0DE50D0F0E380E620E8B0E33
:100B8600B50EDE0E080F310F5B0F840FAD0FD70FBA
:100B960000102A1053107C10A610CF10F810211147
:100BA6004B1174119D11C611EF11191242126B12DD
:100BB6009412BD12E6120F13381361138A13B3137E
:100BC600DC1304142D1456147F14A814D014F9142D
:100BD60022154A1573159C15C415ED1515163E16E6
:100BE60067168F16B716E0160817311759178117AB
:100BF600AA17D217FA1723184B1873189B18C3187D
:100C0600EC1814193C1964198C19B419DC19041A56
:100C16002D1A551A7D1AA51ACD1AF51A1D1B451B34
:100C26006D1B941BBC1BE41B0C1C341C5C1C841C21
:100C3600AC1CD41CFC1C241D4C1D741D9B1DC31D0B
:100C4600EB1D131E3B1E631E8B1EB31EDB1E031FF6
:100C56002B1F531F7B1FA31FCA1FF21F1A204220E0
:100C66006A209220BA20E2200A2133215B218321C7
:100C7600AB21D321FB2123224B2273229C22C422A7
:100C8600EC2214233C2365238D23B523DD23062480
:100C96002E2456247F24A724CF24F8242025492552
:100CA60071259A25C225EB2513263C2664268D261A
:100CB600B526DE2607272F2758278127A927D227DB
:100CC600FB2724284C2875289E28C728F028182991
:100CD600F6FFF7FFF8FFF9FFFAFFFBFFFCFFFDFF4A
:100CE600FEFFFFFF000001000200030004000500F4
:100CF60006000700080009000A000B000C000D00A2
:100D06000E000F0010001100120013001400150051
:100D160016001700180019001A001B001C001D0001
:100D26001E001F00200021002200230024002500B1
:100D360026002700280029002A002B002C002D0061
:100D46002E002F0030003100320033003400350011
:100D560036003700380039003A003B003C003D00C1
:100D66003E003F0040004100420043004400450071
:100D760046004700480049004A004B004C004D0021
:100D86004E004F00500051005200530054005500D1
:100D960056005700580059005A005B005C005D0081
:100DA6005E005F0060006100620063006400650031
:100DB60066006700680069006A006B006C006D00E1
:100DC6006E006F0070007100720073007400750091
:100DD60076007700780079007A007B007C007D0041
:100DE6007E007F00800081008200830084008500F1
:100DF60086008700880089008A008B008C008D00A1
:100E06008E008F0090009100920093009400950050
:100E160096009700980099009A009B009C009D0000
:100E26009E009F00A000A100A200A300A400A500B0
:100E3600A600A700A800A900AA00AB00AC00AD0060
:100E4600AE00AF00B000B100B200B300B400B50010
:100E5600B600B700B800B900BA00BB00BC00BD00C0
:100E6600BE00BF00C000C100C200C300C400C50070
:100E7600C600C700C800C900CA00CB00CC00CD0020
:100E8600CE00CF00D000D100D200D300D400D500D0
:100E9600D600D700D800D900DA00DB00DC00DD0080
:100EA600DE00DF00E000E100E200E300E400E50030
:100EB600E600E700E800E900EA00EB00EC00ED00E0
:100EC600EE00EF00F000F100F200F300F400F50090
:0A0ED600F600F700F800F900FA003A
:00000001FF
